{
  "_format": "hh-sol-artifact-1",
  "contractName": "TodoList",
  "sourceName": "contracts/Todolist.sol",
  "abi": [
    {
      "inputs": [
        {
          "internalType": "string",
          "name": "_text",
          "type": "string"
        }
      ],
      "name": "addTodo",
      "outputs": [],
      "stateMutability": "nonpayable",
      "type": "function"
    },
    {
      "inputs": [
        {
          "internalType": "uint256",
          "name": "_id",
          "type": "uint256"
        }
      ],
      "name": "changeStatus",
      "outputs": [],
      "stateMutability": "nonpayable",
      "type": "function"
    },
    {
      "inputs": [],
      "name": "getLists",
      "outputs": [
        {
          "components": [
            {
              "internalType": "string",
              "name": "text",
              "type": "string"
            },
            {
              "internalType": "enum TodoList.Status",
              "name": "status",
              "type": "uint8"
            },
            {
              "internalType": "uint256",
              "name": "time",
              "type": "uint256"
            }
          ],
          "internalType": "struct TodoList.List[]",
          "name": "",
          "type": "tuple[]"
        }
      ],
      "stateMutability": "view",
      "type": "function"
    }
  ],
  "bytecode": "0x608060405234801561001057600080fd5b50610a53806100206000396000f3fe608060405234801561001057600080fd5b50600436106100415760003560e01c806395ffebf514610046578063cb4b090914610062578063e8025d7714610080575b600080fd5b610060600480360381019061005b919061042b565b61009c565b005b61006a61014a565b6040516100779190610695565b60405180910390f35b61009a600480360381019061009591906106e3565b610280565b005b60006040518060600160405280838152602001600060018111156100c3576100c261051f565b5b8152602001428152509080600181540180825580915050600190039060005260206000209060030201600090919091909150600082015181600001908161010a919061091c565b5060208201518160010160006101000a81548160ff021916908360018111156101365761013561051f565b5b021790555060408201518160020155505050565b60606000805480602002602001604051908101604052809291908181526020016000905b8282101561027757838290600052602060002090600302016040518060600160405290816000820180546101a19061073f565b80601f01602080910402602001604051908101604052809291908181526020018280546101cd9061073f565b801561021a5780601f106101ef5761010080835404028352916020019161021a565b820191906000526020600020905b8154815290600101906020018083116101fd57829003601f168201915b505050505081526020016001820160009054906101000a900460ff1660018111156102485761024761051f565b5b600181111561025a5761025961051f565b5b81526020016002820154815250508152602001906001019061016e565b50505050905090565b600160008281548110610296576102956109ee565b5b906000526020600020906003020160010160006101000a81548160ff021916908360018111156102c9576102c861051f565b5b021790555050565b6000604051905090565b600080fd5b600080fd5b600080fd5b600080fd5b6000601f19601f8301169050919050565b7f4e487b7100000000000000000000000000000000000000000000000000000000600052604160045260246000fd5b610338826102ef565b810181811067ffffffffffffffff8211171561035757610356610300565b5b80604052505050565b600061036a6102d1565b9050610376828261032f565b919050565b600067ffffffffffffffff82111561039657610395610300565b5b61039f826102ef565b9050602081019050919050565b82818337600083830152505050565b60006103ce6103c98461037b565b610360565b9050828152602081018484840111156103ea576103e96102ea565b5b6103f58482856103ac565b509392505050565b600082601f830112610412576104116102e5565b5b81356104228482602086016103bb565b91505092915050565b600060208284031215610441576104406102db565b5b600082013567ffffffffffffffff81111561045f5761045e6102e0565b5b61046b848285016103fd565b91505092915050565b600081519050919050565b600082825260208201905092915050565b6000819050602082019050919050565b600081519050919050565b600082825260208201905092915050565b60005b838110156104da5780820151818401526020810190506104bf565b60008484015250505050565b60006104f1826104a0565b6104fb81856104ab565b935061050b8185602086016104bc565b610514816102ef565b840191505092915050565b7f4e487b7100000000000000000000000000000000000000000000000000000000600052602160045260246000fd5b6002811061055f5761055e61051f565b5b50565b60008190506105708261054e565b919050565b600061058082610562565b9050919050565b61059081610575565b82525050565b6000819050919050565b6105a981610596565b82525050565b600060608301600083015184820360008601526105cc82826104e6565b91505060208301516105e16020860182610587565b5060408301516105f460408601826105a0565b508091505092915050565b600061060b83836105af565b905092915050565b6000602082019050919050565b600061062b82610474565b610635818561047f565b93508360208202850161064785610490565b8060005b85811015610683578484038952815161066485826105ff565b945061066f83610613565b925060208a0199505060018101905061064b565b50829750879550505050505092915050565b600060208201905081810360008301526106af8184610620565b905092915050565b6106c081610596565b81146106cb57600080fd5b50565b6000813590506106dd816106b7565b92915050565b6000602082840312156106f9576106f86102db565b5b6000610707848285016106ce565b91505092915050565b7f4e487b7100000000000000000000000000000000000000000000000000000000600052602260045260246000fd5b6000600282049050600182168061075757607f821691505b60208210810361076a57610769610710565b5b50919050565b60008190508160005260206000209050919050565b60006020601f8301049050919050565b600082821b905092915050565b6000600883026107d27fffffffffffffffffffffffffffffffffffffffffffffffffffffffffffffffff82610795565b6107dc8683610795565b95508019841693508086168417925050509392505050565b6000819050919050565b600061081961081461080f84610596565b6107f4565b610596565b9050919050565b6000819050919050565b610833836107fe565b61084761083f82610820565b8484546107a2565b825550505050565b600090565b61085c61084f565b61086781848461082a565b505050565b5b8181101561088b57610880600082610854565b60018101905061086d565b5050565b601f8211156108d0576108a181610770565b6108aa84610785565b810160208510156108b9578190505b6108cd6108c585610785565b83018261086c565b50505b505050565b600082821c905092915050565b60006108f3600019846008026108d5565b1980831691505092915050565b600061090c83836108e2565b9150826002028217905092915050565b610925826104a0565b67ffffffffffffffff81111561093e5761093d610300565b5b610948825461073f565b61095382828561088f565b600060209050601f8311600181146109865760008415610974578287015190505b61097e8582610900565b8655506109e6565b601f19841661099486610770565b60005b828110156109bc57848901518255600182019150602085019450602081019050610997565b868310156109d957848901516109d5601f8916826108e2565b8355505b6001600288020188555050505b505050505050565b7f4e487b7100000000000000000000000000000000000000000000000000000000600052603260045260246000fdfea264697066735822122016b6608b45e9684d4596678e557de5d11265a87bd72d9bb18c3b107f1b03477564736f6c63430008180033",
  "linkReferences": {},
  "deployedLinkReferences": {}
}